:100000000C9461000C947E000C947E000C947E0095
:100010000C947E000C947E000C947E000C947E0068
:100020000C947E000C947E000C947E000C947E0058
:100030000C947E000C947E000C947E000C947E0048
:100040000C94BF010C947E000C947E000C947E00F6
:100050000C947E000C947E000C947E000C947E0028
:100060000C947E000C947E00000000002400270009
:100070002A0000000000250028002B0000000000DE
:1000800023002600290004040404040404040202DA
:100090000202020203030303030301020408102007
:1000A0004080010204081020010204081020000012
:1000B0000008000201000003040700000000000027
:1000C000000011241FBECFEFD8E0DEBFCDBF11E08E
:1000D000A0E0B1E0E8E9F5E002C005900D92A83A91
:1000E000B107D9F721E0A8EAB1E001C01D92AB3B0E
:1000F000B207E1F70E9409020C94CA020C940000B6
:10010000833081F028F4813099F08230A1F0089595
:100110008730A9F08830B9F08430D1F48091800024
:100120008F7D03C0809180008F7780938000089539
:1001300084B58F7702C084B58F7D84BD089580918A
:10014000B0008F7703C08091B0008F7D8093B000A6
:100150000895CF93DF93282F30E0F901E255FF4F48
:100160008491F901E656FF4FD491F901EA57FF4F08
:10017000C491CC2391F081110E948000EC2FF0E01B
:10018000EE0FFF1FE458FF4FA591B491EC91ED23C2
:1001900081E090E021F480E002C080E090E0DF9117
:1001A000CF9108951F93CF93DF93282F30E0F9016B
:1001B000E255FF4F8491F901E656FF4FD491F901C2
:1001C000EA57FF4FC491CC23C9F0162F81110E942A
:1001D0008000EC2FF0E0EE0FFF1FEE58FF4FA591CF
:1001E000B4918FB7F894111105C09C91ED2FE09553
:1001F000E92302C0EC91ED2BEC938FBFDF91CF91FF
:100200001F910895CF93DF9390E0FC01E656FF4FD6
:100210002491FC01EA57FF4F8491882361F190E01B
:10022000880F991FFC01E859FF4FC591D491FC013B
:10023000EE58FF4FA591B491611109C09FB7F89492
:100240008881209582238883EC912E230BC0623015
:1002500061F49FB7F8943881822F80958323888337
:10026000EC912E2B2C939FBF06C08FB7F894E8819A
:100270002E2B28838FBFDF91CF910895AF92BF922D
:10028000CF92DF92EF92FF920F931F93CF93DF9362
:100290008A30910574F49093AB018093AA01109277
:1002A000A9011092A8018AE9E82E81E0F82EE70161
:1002B0000DC06AE070E00E94A2029093AB018093AF
:1002C000AA017093A9016093A801EDCF88812296BD
:1002D00060E00E94D20081E0C83AD807B9F70CE884
:1002E00011E0E8018881229660E00E94D20091E04E
:1002F000CA39D907B9F7C090AA01D090AB01809153
:10030000A8019091A9012EE0289F5001299FB00CCF
:100310001124C0E0D0E0F7018081F2E0EF0EF11C83
:10032000FE01EA0DFB1DE050FF4F60810E94D200EC
:100330002296CE30D10579F78EE08C9D70018D9D8F
:10034000F00C1124C0E0D0E0F80180810E5F1F4F57
:10035000FE01EE0DFF1DE050FF4F60810E94D200B4
:100360002296CE30D10581F7DF91CF911F910F9169
:10037000FF90EF90DF90CF90BF90AF9008951F92C5
:100380000F920FB60F9211242F933F938F939F9349
:10039000AF93BF938091B7019091B801A091B9013B
:1003A000B091BA013091B60123E0230F2D3720F42C
:1003B0000196A11DB11D05C026E8230F0296A11DBF
:1003C000B11D2093B6018093B7019093B801A0931B
:1003D000B901B093BA018091B2019091B301A0919B
:1003E000B401B091B5010196A11DB11D8093B20178
:1003F0009093B301A093B401B093B501BF91AF91B5
:100400009F918F913F912F910F900FBE0F901F9052
:100410001895789484B5826084BD84B5816084BD6C
:1004200085B5826085BD85B5816085BD80916E0092
:10043000816080936E0010928100809181008260C3
:100440008093810080918100816080938100809100
:1004500080008160809380008091B10084608093EF
:10046000B1008091B00081608093B00080917A00EB
:10047000846080937A0080917A00826080937A0011
:1004800080917A00816080937A0080917A00806800
:1004900080937A001092C10060E089E00E9402011E
:1004A00060E08AE00E940201CAE9D1E088812296D8
:1004B00061E00E94020181E0C83AD807B9F7CCE8B0
:1004C000D1E08881229661E00E94020181E0CA3970
:1004D000D807B9F7C0E0D0E089E00E94A9008C01FC
:1004E0009093B1018093B0018AE00E94A90090939B
:1004F000AF018093AE010130110571F48091AC0120
:100500009091AD0101969093AD018093AC01109252
:10051000B1011092B0010FC0019779F48091AC0144
:100520009091AD0101979093AD018093AC01109231
:10053000AF011092AE010E943E01209769F20E9425
:100540000000CACF97FB072E16F4009407D077FD62
:1005500009D00E94B60207FC05D03EF49095819523
:100560009F4F0895709561957F4F0895AA1BBB1BFF
:1005700051E107C0AA1FBB1FA617B70710F0A61BA3
:10058000B70B881F991F5A95A9F780959095BC01C4
:08059000CD010895F894FFCF9E
:10059800010001000100010001000100000000004D
:1005A800010001000000000000000000010001003F
:1005B800000001000100000001000100010001002D
:1005C800010000000000010000000100010000001F
:1005D800000001000100010000000100010000000E
:1005E80001000100010000000100010001000100FC
:1005F80001000100010001000000000000000000EF
:1006080001000100010001000100010001000100DA
:1006180001000100000000000100010002000300C9
:10062800040005000600070008000200030004009B
:080638000500060007000800A0
:00000001FF
